{
  "_format": "hh-sol-artifact-1",
  "contractName": "ZKPVerifier",
  "sourceName": "contracts/ZKPVerifier.sol",
  "abi": [
    {
      "inputs": [
        {
          "internalType": "address",
          "name": "initialOwner",
          "type": "address"
        }
      ],
      "stateMutability": "nonpayable",
      "type": "constructor"
    },
    {
      "inputs": [
        {
          "internalType": "address",
          "name": "owner",
          "type": "address"
        }
      ],
      "name": "OwnableInvalidOwner",
      "type": "error"
    },
    {
      "inputs": [
        {
          "internalType": "address",
          "name": "account",
          "type": "address"
        }
      ],
      "name": "OwnableUnauthorizedAccount",
      "type": "error"
    },
    {
      "anonymous": false,
      "inputs": [
        {
          "indexed": true,
          "internalType": "address",
          "name": "previousOwner",
          "type": "address"
        },
        {
          "indexed": true,
          "internalType": "address",
          "name": "newOwner",
          "type": "address"
        }
      ],
      "name": "OwnershipTransferred",
      "type": "event"
    },
    {
      "anonymous": false,
      "inputs": [
        {
          "indexed": false,
          "internalType": "address",
          "name": "user",
          "type": "address"
        }
      ],
      "name": "ProofVerified",
      "type": "event"
    },
    {
      "inputs": [],
      "name": "owner",
      "outputs": [
        {
          "internalType": "address",
          "name": "",
          "type": "address"
        }
      ],
      "stateMutability": "view",
      "type": "function"
    },
    {
      "inputs": [],
      "name": "renounceOwnership",
      "outputs": [],
      "stateMutability": "nonpayable",
      "type": "function"
    },
    {
      "inputs": [
        {
          "internalType": "address",
          "name": "newOwner",
          "type": "address"
        }
      ],
      "name": "transferOwnership",
      "outputs": [],
      "stateMutability": "nonpayable",
      "type": "function"
    },
    {
      "inputs": [
        {
          "internalType": "address",
          "name": "",
          "type": "address"
        }
      ],
      "name": "verifiedUsers",
      "outputs": [
        {
          "internalType": "bool",
          "name": "",
          "type": "bool"
        }
      ],
      "stateMutability": "view",
      "type": "function"
    },
    {
      "inputs": [
        {
          "internalType": "bytes",
          "name": "proof",
          "type": "bytes"
        },
        {
          "internalType": "bytes32[]",
          "name": "publicSignals",
          "type": "bytes32[]"
        }
      ],
      "name": "verifyZKP",
      "outputs": [],
      "stateMutability": "nonpayable",
      "type": "function"
    }
  ],
  "bytecode": "0x608060405234801561001057600080fd5b5060405161093b38038061093b833981810160405281019061003291906101e2565b80600073ffffffffffffffffffffffffffffffffffffffff168173ffffffffffffffffffffffffffffffffffffffff16036100a55760006040517f1e4fbdf700000000000000000000000000000000000000000000000000000000815260040161009c919061021e565b60405180910390fd5b6100b4816100bb60201b60201c565b5050610239565b60008060009054906101000a900473ffffffffffffffffffffffffffffffffffffffff169050816000806101000a81548173ffffffffffffffffffffffffffffffffffffffff021916908373ffffffffffffffffffffffffffffffffffffffff1602179055508173ffffffffffffffffffffffffffffffffffffffff168173ffffffffffffffffffffffffffffffffffffffff167f8be0079c531659141344cd1fd0a4f28419497f9722a3daafe3b4186f6b6457e060405160405180910390a35050565b600080fd5b600073ffffffffffffffffffffffffffffffffffffffff82169050919050565b60006101af82610184565b9050919050565b6101bf816101a4565b81146101ca57600080fd5b50565b6000815190506101dc816101b6565b92915050565b6000602082840312156101f8576101f761017f565b5b6000610206848285016101cd565b91505092915050565b610218816101a4565b82525050565b6000602082019050610233600083018461020f565b92915050565b6106f3806102486000396000f3fe608060405234801561001057600080fd5b50600436106100575760003560e01c80631f28a1da1461005c578063715018a6146100785780638da5cb5b14610082578063e35fe366146100a0578063f2fde38b146100d0575b600080fd5b610076600480360381019061007191906104d4565b6100ec565b005b6100806101cb565b005b61008a6101df565b6040516100979190610596565b60405180910390f35b6100ba60048036038101906100b591906105dd565b610208565b6040516100c79190610625565b60405180910390f35b6100ea60048036038101906100e591906105dd565b610228565b005b6100f8848484846102ae565b610137576040517f08c379a000000000000000000000000000000000000000000000000000000000815260040161012e9061069d565b60405180910390fd5b60018060003373ffffffffffffffffffffffffffffffffffffffff1673ffffffffffffffffffffffffffffffffffffffff16815260200190815260200160002060006101000a81548160ff0219169083151502179055507f9cbb2c694eed9687ad9654ae462269807cc8b44f6dbd076f296bd916f1f3d0cd336040516101bd9190610596565b60405180910390a150505050565b6101d36102bc565b6101dd6000610343565b565b60008060009054906101000a900473ffffffffffffffffffffffffffffffffffffffff16905090565b60016020528060005260406000206000915054906101000a900460ff1681565b6102306102bc565b600073ffffffffffffffffffffffffffffffffffffffff168173ffffffffffffffffffffffffffffffffffffffff16036102a25760006040517f1e4fbdf70000000000000000000000000000000000000000000000000000000081526004016102999190610596565b60405180910390fd5b6102ab81610343565b50565b600060019050949350505050565b6102c4610407565b73ffffffffffffffffffffffffffffffffffffffff166102e26101df565b73ffffffffffffffffffffffffffffffffffffffff161461034157610305610407565b6040517f118cdaa70000000000000000000000000000000000000000000000000000000081526004016103389190610596565b60405180910390fd5b565b60008060009054906101000a900473ffffffffffffffffffffffffffffffffffffffff169050816000806101000a81548173ffffffffffffffffffffffffffffffffffffffff021916908373ffffffffffffffffffffffffffffffffffffffff1602179055508173ffffffffffffffffffffffffffffffffffffffff168173ffffffffffffffffffffffffffffffffffffffff167f8be0079c531659141344cd1fd0a4f28419497f9722a3daafe3b4186f6b6457e060405160405180910390a35050565b600033905090565b600080fd5b600080fd5b600080fd5b600080fd5b600080fd5b60008083601f84011261043e5761043d610419565b5b8235905067ffffffffffffffff81111561045b5761045a61041e565b5b60208301915083600182028301111561047757610476610423565b5b9250929050565b60008083601f84011261049457610493610419565b5b8235905067ffffffffffffffff8111156104b1576104b061041e565b5b6020830191508360208202830111156104cd576104cc610423565b5b9250929050565b600080600080604085870312156104ee576104ed61040f565b5b600085013567ffffffffffffffff81111561050c5761050b610414565b5b61051887828801610428565b9450945050602085013567ffffffffffffffff81111561053b5761053a610414565b5b6105478782880161047e565b925092505092959194509250565b600073ffffffffffffffffffffffffffffffffffffffff82169050919050565b600061058082610555565b9050919050565b61059081610575565b82525050565b60006020820190506105ab6000830184610587565b92915050565b6105ba81610575565b81146105c557600080fd5b50565b6000813590506105d7816105b1565b92915050565b6000602082840312156105f3576105f261040f565b5b6000610601848285016105c8565b91505092915050565b60008115159050919050565b61061f8161060a565b82525050565b600060208201905061063a6000830184610616565b92915050565b600082825260208201905092915050565b7f496e76616c69642070726f6f6600000000000000000000000000000000000000600082015250565b6000610687600d83610640565b915061069282610651565b602082019050919050565b600060208201905081810360008301526106b68161067a565b905091905056fea2646970667358221220f895df2172ecd24f7e9bc7b6ca82148620e4ec35395482644233192003d6649d64736f6c634300081c0033",
  "linkReferences": {},
  "deployedLinkReferences": {}
}